{
  "address": "0xa5f8Acf6eEB36A3e9284F52b5DA2bEB9c8728523",
  "abi": [
    {
      "inputs": [
        {
          "internalType": "address",
          "name": "_verifier",
          "type": "address"
        },
        {
          "internalType": "string",
          "name": "_name",
          "type": "string"
        },
        {
          "internalType": "string",
          "name": "_symbol",
          "type": "string"
        }
      ],
      "stateMutability": "nonpayable",
      "type": "constructor"
    },
    {
      "anonymous": false,
      "inputs": [
        {
          "indexed": true,
          "internalType": "address",
          "name": "owner",
          "type": "address"
        },
        {
          "indexed": true,
          "internalType": "address",
          "name": "approved",
          "type": "address"
        },
        {
          "indexed": true,
          "internalType": "uint256",
          "name": "tokenId",
          "type": "uint256"
        }
      ],
      "name": "Approval",
      "type": "event"
    },
    {
      "anonymous": false,
      "inputs": [
        {
          "indexed": true,
          "internalType": "address",
          "name": "owner",
          "type": "address"
        },
        {
          "indexed": true,
          "internalType": "address",
          "name": "operator",
          "type": "address"
        },
        {
          "indexed": false,
          "internalType": "bool",
          "name": "approved",
          "type": "bool"
        }
      ],
      "name": "ApprovalForAll",
      "type": "event"
    },
    {
      "anonymous": false,
      "inputs": [
        {
          "indexed": true,
          "internalType": "address",
          "name": "from",
          "type": "address"
        },
        {
          "indexed": true,
          "internalType": "address",
          "name": "to",
          "type": "address"
        },
        {
          "indexed": true,
          "internalType": "uint256",
          "name": "tokenId",
          "type": "uint256"
        }
      ],
      "name": "Transfer",
      "type": "event"
    },
    {
      "inputs": [
        {
          "internalType": "address",
          "name": "to",
          "type": "address"
        },
        {
          "internalType": "uint256",
          "name": "tokenId",
          "type": "uint256"
        }
      ],
      "name": "approve",
      "outputs": [],
      "stateMutability": "nonpayable",
      "type": "function"
    },
    {
      "inputs": [
        {
          "internalType": "address",
          "name": "owner",
          "type": "address"
        }
      ],
      "name": "balanceOf",
      "outputs": [
        {
          "internalType": "uint256",
          "name": "",
          "type": "uint256"
        }
      ],
      "stateMutability": "view",
      "type": "function"
    },
    {
      "inputs": [
        {
          "internalType": "uint256",
          "name": "tokenId",
          "type": "uint256"
        }
      ],
      "name": "getApproved",
      "outputs": [
        {
          "internalType": "address",
          "name": "",
          "type": "address"
        }
      ],
      "stateMutability": "view",
      "type": "function"
    },
    {
      "inputs": [
        {
          "internalType": "address",
          "name": "owner",
          "type": "address"
        },
        {
          "internalType": "address",
          "name": "operator",
          "type": "address"
        }
      ],
      "name": "isApprovedForAll",
      "outputs": [
        {
          "internalType": "bool",
          "name": "",
          "type": "bool"
        }
      ],
      "stateMutability": "view",
      "type": "function"
    },
    {
      "inputs": [
        {
          "internalType": "uint256",
          "name": "_nullifier",
          "type": "uint256"
        },
        {
          "internalType": "uint256",
          "name": "_publicNumber",
          "type": "uint256"
        },
        {
          "internalType": "uint256[2]",
          "name": "a",
          "type": "uint256[2]"
        },
        {
          "internalType": "uint256[2][2]",
          "name": "b",
          "type": "uint256[2][2]"
        },
        {
          "internalType": "uint256[2]",
          "name": "c",
          "type": "uint256[2]"
        }
      ],
      "name": "mintWithProof",
      "outputs": [],
      "stateMutability": "nonpayable",
      "type": "function"
    },
    {
      "inputs": [],
      "name": "name",
      "outputs": [
        {
          "internalType": "string",
          "name": "",
          "type": "string"
        }
      ],
      "stateMutability": "view",
      "type": "function"
    },
    {
      "inputs": [],
      "name": "newItemId",
      "outputs": [
        {
          "internalType": "uint256",
          "name": "",
          "type": "uint256"
        }
      ],
      "stateMutability": "view",
      "type": "function"
    },
    {
      "inputs": [
        {
          "internalType": "uint256",
          "name": "",
          "type": "uint256"
        }
      ],
      "name": "nullifiers",
      "outputs": [
        {
          "internalType": "bool",
          "name": "",
          "type": "bool"
        }
      ],
      "stateMutability": "view",
      "type": "function"
    },
    {
      "inputs": [
        {
          "internalType": "uint256",
          "name": "tokenId",
          "type": "uint256"
        }
      ],
      "name": "ownerOf",
      "outputs": [
        {
          "internalType": "address",
          "name": "",
          "type": "address"
        }
      ],
      "stateMutability": "view",
      "type": "function"
    },
    {
      "inputs": [
        {
          "internalType": "address",
          "name": "from",
          "type": "address"
        },
        {
          "internalType": "address",
          "name": "to",
          "type": "address"
        },
        {
          "internalType": "uint256",
          "name": "tokenId",
          "type": "uint256"
        }
      ],
      "name": "safeTransferFrom",
      "outputs": [],
      "stateMutability": "nonpayable",
      "type": "function"
    },
    {
      "inputs": [
        {
          "internalType": "address",
          "name": "from",
          "type": "address"
        },
        {
          "internalType": "address",
          "name": "to",
          "type": "address"
        },
        {
          "internalType": "uint256",
          "name": "tokenId",
          "type": "uint256"
        },
        {
          "internalType": "bytes",
          "name": "data",
          "type": "bytes"
        }
      ],
      "name": "safeTransferFrom",
      "outputs": [],
      "stateMutability": "nonpayable",
      "type": "function"
    },
    {
      "inputs": [
        {
          "internalType": "address",
          "name": "operator",
          "type": "address"
        },
        {
          "internalType": "bool",
          "name": "approved",
          "type": "bool"
        }
      ],
      "name": "setApprovalForAll",
      "outputs": [],
      "stateMutability": "nonpayable",
      "type": "function"
    },
    {
      "inputs": [
        {
          "internalType": "bytes4",
          "name": "interfaceId",
          "type": "bytes4"
        }
      ],
      "name": "supportsInterface",
      "outputs": [
        {
          "internalType": "bool",
          "name": "",
          "type": "bool"
        }
      ],
      "stateMutability": "view",
      "type": "function"
    },
    {
      "inputs": [],
      "name": "symbol",
      "outputs": [
        {
          "internalType": "string",
          "name": "",
          "type": "string"
        }
      ],
      "stateMutability": "view",
      "type": "function"
    },
    {
      "inputs": [
        {
          "internalType": "uint256",
          "name": "tokenId",
          "type": "uint256"
        }
      ],
      "name": "tokenURI",
      "outputs": [
        {
          "internalType": "string",
          "name": "",
          "type": "string"
        }
      ],
      "stateMutability": "view",
      "type": "function"
    },
    {
      "inputs": [
        {
          "internalType": "address",
          "name": "from",
          "type": "address"
        },
        {
          "internalType": "address",
          "name": "to",
          "type": "address"
        },
        {
          "internalType": "uint256",
          "name": "tokenId",
          "type": "uint256"
        }
      ],
      "name": "transferFrom",
      "outputs": [],
      "stateMutability": "nonpayable",
      "type": "function"
    }
  ],
  "transactionHash": "0x3fedcf6b99303ea71d9042c20dfa9726085fd74bf45ff22ef8ec167331b0cb25",
  "args": [
    "0xA7057C14403ee2f827057Aa2B3A3F2c104d433eD",
    "ZKAPP",
    "ZKP"
  ],
  "numDeployments": 2,
  "solcInputHash": "5ff3bdfaca217982e2e0d81e2b8a196b",
  "bytecode": "0x60806040523480156200001157600080fd5b5060405162002d8838038062002d888339818101604052810190620000379190620001f0565b8181816000908051906020019062000051929190620000b7565b5080600190805190602001906200006a929190620000b7565b50505082600760006101000a81548173ffffffffffffffffffffffffffffffffffffffff021916908373ffffffffffffffffffffffffffffffffffffffff16021790555050505062000436565b828054620000c59062000341565b90600052602060002090601f016020900481019282620000e9576000855562000135565b82601f106200010457805160ff191683800117855562000135565b8280016001018555821562000135579182015b828111156200013457825182559160200191906001019062000117565b5b50905062000144919062000148565b5090565b5b808211156200016357600081600090555060010162000149565b5090565b60006200017e6200017884620002a1565b62000278565b9050828152602081018484840111156200019757600080fd5b620001a48482856200030b565b509392505050565b600081519050620001bd816200041c565b92915050565b600082601f830112620001d557600080fd5b8151620001e784826020860162000167565b91505092915050565b6000806000606084860312156200020657600080fd5b60006200021686828701620001ac565b935050602084015167ffffffffffffffff8111156200023457600080fd5b6200024286828701620001c3565b925050604084015167ffffffffffffffff8111156200026057600080fd5b6200026e86828701620001c3565b9150509250925092565b60006200028462000297565b905062000292828262000377565b919050565b6000604051905090565b600067ffffffffffffffff821115620002bf57620002be620003dc565b5b620002ca826200040b565b9050602081019050919050565b6000620002e482620002eb565b9050919050565b600073ffffffffffffffffffffffffffffffffffffffff82169050919050565b60005b838110156200032b5780820151818401526020810190506200030e565b838111156200033b576000848401525b50505050565b600060028204905060018216806200035a57607f821691505b60208210811415620003715762000370620003ad565b5b50919050565b62000382826200040b565b810181811067ffffffffffffffff82111715620003a457620003a3620003dc565b5b80604052505050565b7f4e487b7100000000000000000000000000000000000000000000000000000000600052602260045260246000fd5b7f4e487b7100000000000000000000000000000000000000000000000000000000600052604160045260246000fd5b6000601f19601f8301169050919050565b6200042781620002d7565b81146200043357600080fd5b50565b61294280620004466000396000f3fe608060405234801561001057600080fd5b50600436106100ff5760003560e01c806370a0823111610097578063b88d4fde11610066578063b88d4fde146102aa578063c87b56dd146102c6578063d21e82ab146102f6578063e985e9c514610326576100ff565b806370a08231146102245780637134e88c1461025457806395d89b4114610270578063a22cb4651461028e576100ff565b8063095ea7b3116100d3578063095ea7b3146101a057806323b872dd146101bc57806342842e0e146101d85780636352211e146101f4576100ff565b80620ed58f1461010457806301ffc9a71461012257806306fdde0314610152578063081812fc14610170575b600080fd5b61010c610356565b6040516101199190612136565b60405180910390f35b61013c600480360381019061013791906119e7565b61035c565b6040516101499190611f99565b60405180910390f35b61015a61043e565b6040516101679190611fb4565b60405180910390f35b61018a60048036038101906101859190611a39565b6104d0565b6040516101979190611eeb565b60405180910390f35b6101ba60048036038101906101b59190611982565b610516565b005b6101d660048036038101906101d1919061187c565b61062e565b005b6101f260048036038101906101ed919061187c565b61068e565b005b61020e60048036038101906102099190611a39565b6106ae565b60405161021b9190611eeb565b60405180910390f35b61023e60048036038101906102399190611817565b610760565b60405161024b9190612136565b60405180910390f35b61026e60048036038101906102699190611a62565b610818565b005b6102786109c8565b6040516102859190611fb4565b60405180910390f35b6102a860048036038101906102a39190611946565b610a5a565b005b6102c460048036038101906102bf91906118cb565b610a70565b005b6102e060048036038101906102db9190611a39565b610ad2565b6040516102ed9190611fb4565b60405180910390f35b610310600480360381019061030b9190611a39565b610b3a565b60405161031d9190611f99565b60405180910390f35b610340600480360381019061033b9190611840565b610b5a565b60405161034d9190611f99565b60405180910390f35b60065481565b60007f80ac58cd000000000000000000000000000000000000000000000000000000007bffffffffffffffffffffffffffffffffffffffffffffffffffffffff1916827bffffffffffffffffffffffffffffffffffffffffffffffffffffffff1916148061042757507f5b5e139f000000000000000000000000000000000000000000000000000000007bffffffffffffffffffffffffffffffffffffffffffffffffffffffff1916827bffffffffffffffffffffffffffffffffffffffffffffffffffffffff1916145b80610437575061043682610bee565b5b9050919050565b60606000805461044d90612439565b80601f016020809104026020016040519081016040528092919081815260200182805461047990612439565b80156104c65780601f1061049b576101008083540402835291602001916104c6565b820191906000526020600020905b8154815290600101906020018083116104a957829003601f168201915b5050505050905090565b60006104db82610c58565b6004600083815260200190815260200160002060009054906101000a900473ffffffffffffffffffffffffffffffffffffffff169050919050565b6000610521826106ae565b90508073ffffffffffffffffffffffffffffffffffffffff168373ffffffffffffffffffffffffffffffffffffffff161415610592576040517f08c379a0000000000000000000000000000000000000000000000000000000008152600401610589906120f6565b60405180910390fd5b8073ffffffffffffffffffffffffffffffffffffffff166105b1610ca3565b73ffffffffffffffffffffffffffffffffffffffff1614806105e057506105df816105da610ca3565b610b5a565b5b61061f576040517f08c379a0000000000000000000000000000000000000000000000000000000008152600401610616906120b6565b60405180910390fd5b6106298383610cab565b505050565b61063f610639610ca3565b82610d64565b61067e576040517f08c379a000000000000000000000000000000000000000000000000000000000815260040161067590612116565b60405180910390fd5b610689838383610df9565b505050565b6106a983838360405180602001604052806000815250610a70565b505050565b6000806002600084815260200190815260200160002060009054906101000a900473ffffffffffffffffffffffffffffffffffffffff169050600073ffffffffffffffffffffffffffffffffffffffff168173ffffffffffffffffffffffffffffffffffffffff161415610757576040517f08c379a000000000000000000000000000000000000000000000000000000000815260040161074e906120d6565b60405180910390fd5b80915050919050565b60008073ffffffffffffffffffffffffffffffffffffffff168273ffffffffffffffffffffffffffffffffffffffff1614156107d1576040517f08c379a00000000000000000000000000000000000000000000000000000000081526004016107c890612096565b60405180910390fd5b600360008373ffffffffffffffffffffffffffffffffffffffff1673ffffffffffffffffffffffffffffffffffffffff168152602001908152602001600020549050919050565b600015156008600087815260200190815260200160002060009054906101000a900460ff1615151461087f576040517f08c379a000000000000000000000000000000000000000000000000000000000815260040161087690612076565b60405180910390fd5b600760009054906101000a900473ffffffffffffffffffffffffffffffffffffffff1673ffffffffffffffffffffffffffffffffffffffff166343753b4d84848460405180602001604052808a8152506040518563ffffffff1660e01b81526004016108ee9493929190611f52565b60206040518083038186803b15801561090657600080fd5b505afa15801561091a573d6000803e3d6000fd5b505050506040513d601f19601f8201168201806040525081019061093e91906119be565b61097d576040517f08c379a000000000000000000000000000000000000000000000000000000000815260040161097490611ff6565b60405180910390fd5b60016008600087815260200190815260200160002060006101000a81548160ff021916908315150217905550600660008154809291906109bc9061249c565b91905055505050505050565b6060600180546109d790612439565b80601f0160208091040260200160405190810160405280929190818152602001828054610a0390612439565b8015610a505780601f10610a2557610100808354040283529160200191610a50565b820191906000526020600020905b815481529060010190602001808311610a3357829003601f168201915b5050505050905090565b610a6c610a65610ca3565b8383611060565b5050565b610a81610a7b610ca3565b83610d64565b610ac0576040517f08c379a0000000000000000000000000000000000000000000000000000000008152600401610ab790612116565b60405180910390fd5b610acc848484846111cd565b50505050565b6060610add82610c58565b6000610ae7611229565b90506000815111610b075760405180602001604052806000815250610b32565b80610b1184611240565b604051602001610b22929190611ec7565b6040516020818303038152906040525b915050919050565b60086020528060005260406000206000915054906101000a900460ff1681565b6000600560008473ffffffffffffffffffffffffffffffffffffffff1673ffffffffffffffffffffffffffffffffffffffff16815260200190815260200160002060008373ffffffffffffffffffffffffffffffffffffffff1673ffffffffffffffffffffffffffffffffffffffff16815260200190815260200160002060009054906101000a900460ff16905092915050565b60007f01ffc9a7000000000000000000000000000000000000000000000000000000007bffffffffffffffffffffffffffffffffffffffffffffffffffffffff1916827bffffffffffffffffffffffffffffffffffffffffffffffffffffffff1916149050919050565b610c61816113ed565b610ca0576040517f08c379a0000000000000000000000000000000000000000000000000000000008152600401610c97906120d6565b60405180910390fd5b50565b600033905090565b816004600083815260200190815260200160002060006101000a81548173ffffffffffffffffffffffffffffffffffffffff021916908373ffffffffffffffffffffffffffffffffffffffff160217905550808273ffffffffffffffffffffffffffffffffffffffff16610d1e836106ae565b73ffffffffffffffffffffffffffffffffffffffff167f8c5be1e5ebec7d5bd14f71427d1e84f3dd0314c0f7b2291e5b200ac8c7c3b92560405160405180910390a45050565b600080610d70836106ae565b90508073ffffffffffffffffffffffffffffffffffffffff168473ffffffffffffffffffffffffffffffffffffffff161480610db25750610db18185610b5a565b5b80610df057508373ffffffffffffffffffffffffffffffffffffffff16610dd8846104d0565b73ffffffffffffffffffffffffffffffffffffffff16145b91505092915050565b8273ffffffffffffffffffffffffffffffffffffffff16610e19826106ae565b73ffffffffffffffffffffffffffffffffffffffff1614610e6f576040517f08c379a0000000000000000000000000000000000000000000000000000000008152600401610e6690612016565b60405180910390fd5b600073ffffffffffffffffffffffffffffffffffffffff168273ffffffffffffffffffffffffffffffffffffffff161415610edf576040517f08c379a0000000000000000000000000000000000000000000000000000000008152600401610ed690612036565b60405180910390fd5b610eea838383611459565b610ef5600082610cab565b6001600360008573ffffffffffffffffffffffffffffffffffffffff1673ffffffffffffffffffffffffffffffffffffffff1681526020019081526020016000206000828254610f45919061234f565b925050819055506001600360008473ffffffffffffffffffffffffffffffffffffffff1673ffffffffffffffffffffffffffffffffffffffff1681526020019081526020016000206000828254610f9c91906122c8565b92505081905550816002600083815260200190815260200160002060006101000a81548173ffffffffffffffffffffffffffffffffffffffff021916908373ffffffffffffffffffffffffffffffffffffffff160217905550808273ffffffffffffffffffffffffffffffffffffffff168473ffffffffffffffffffffffffffffffffffffffff167fddf252ad1be2c89b69c2b068fc378daa952ba7f163c4a11628f55a4df523b3ef60405160405180910390a461105b83838361145e565b505050565b8173ffffffffffffffffffffffffffffffffffffffff168373ffffffffffffffffffffffffffffffffffffffff1614156110cf576040517f08c379a00000000000000000000000000000000000000000000000000000000081526004016110c690612056565b60405180910390fd5b80600560008573ffffffffffffffffffffffffffffffffffffffff1673ffffffffffffffffffffffffffffffffffffffff16815260200190815260200160002060008473ffffffffffffffffffffffffffffffffffffffff1673ffffffffffffffffffffffffffffffffffffffff16815260200190815260200160002060006101000a81548160ff0219169083151502179055508173ffffffffffffffffffffffffffffffffffffffff168373ffffffffffffffffffffffffffffffffffffffff167f17307eab39ab6107e8899845ad3d59bd9653f200f220920489ca2b5937696c31836040516111c09190611f99565b60405180910390a3505050565b6111d8848484610df9565b6111e484848484611463565b611223576040517f08c379a000000000000000000000000000000000000000000000000000000000815260040161121a90611fd6565b60405180910390fd5b50505050565b606060405180602001604052806000815250905090565b60606000821415611288576040518060400160405280600181526020017f300000000000000000000000000000000000000000000000000000000000000081525090506113e8565b600082905060005b600082146112ba5780806112a39061249c565b915050600a826112b3919061231e565b9150611290565b60008167ffffffffffffffff8111156112fc577f4e487b7100000000000000000000000000000000000000000000000000000000600052604160045260246000fd5b6040519080825280601f01601f19166020018201604052801561132e5781602001600182028036833780820191505090505b5090505b600085146113e157600182611347919061234f565b9150600a8561135691906124e5565b603061136291906122c8565b60f81b81838151811061139e577f4e487b7100000000000000000000000000000000000000000000000000000000600052603260045260246000fd5b60200101907effffffffffffffffffffffffffffffffffffffffffffffffffffffffffffff1916908160001a905350600a856113da919061231e565b9450611332565b8093505050505b919050565b60008073ffffffffffffffffffffffffffffffffffffffff166002600084815260200190815260200160002060009054906101000a900473ffffffffffffffffffffffffffffffffffffffff1673ffffffffffffffffffffffffffffffffffffffff1614159050919050565b505050565b505050565b60006114848473ffffffffffffffffffffffffffffffffffffffff166115fa565b156115ed578373ffffffffffffffffffffffffffffffffffffffff1663150b7a026114ad610ca3565b8786866040518563ffffffff1660e01b81526004016114cf9493929190611f06565b602060405180830381600087803b1580156114e957600080fd5b505af192505050801561151a57506040513d601f19601f820116820180604052508101906115179190611a10565b60015b61159d573d806000811461154a576040519150601f19603f3d011682016040523d82523d6000602084013e61154f565b606091505b50600081511415611595576040517f08c379a000000000000000000000000000000000000000000000000000000000815260040161158c90611fd6565b60405180910390fd5b805181602001fd5b63150b7a0260e01b7bffffffffffffffffffffffffffffffffffffffffffffffffffffffff1916817bffffffffffffffffffffffffffffffffffffffffffffffffffffffff1916149150506115f2565b600190505b949350505050565b6000808273ffffffffffffffffffffffffffffffffffffffff163b119050919050565b600061163061162b84612176565b612151565b9050808285604086028201111561164657600080fd5b60005b85811015611676578161165c888261175d565b845260208401935060408301925050600181019050611649565b5050509392505050565b600061169361168e8461219c565b612151565b905080828560208602820111156116a957600080fd5b60005b858110156116d957816116bf8882611802565b8452602084019350602083019250506001810190506116ac565b5050509392505050565b60006116f66116f1846121c2565b612151565b90508281526020810184848401111561170e57600080fd5b6117198482856123f7565b509392505050565b600081359050611730816128b0565b92915050565b600082601f83011261174757600080fd5b600261175484828561161d565b91505092915050565b600082601f83011261176e57600080fd5b600261177b848285611680565b91505092915050565b600081359050611793816128c7565b92915050565b6000815190506117a8816128c7565b92915050565b6000813590506117bd816128de565b92915050565b6000815190506117d2816128de565b92915050565b600082601f8301126117e957600080fd5b81356117f98482602086016116e3565b91505092915050565b600081359050611811816128f5565b92915050565b60006020828403121561182957600080fd5b600061183784828501611721565b91505092915050565b6000806040838503121561185357600080fd5b600061186185828601611721565b925050602061187285828601611721565b9150509250929050565b60008060006060848603121561189157600080fd5b600061189f86828701611721565b93505060206118b086828701611721565b92505060406118c186828701611802565b9150509250925092565b600080600080608085870312156118e157600080fd5b60006118ef87828801611721565b945050602061190087828801611721565b935050604061191187828801611802565b925050606085013567ffffffffffffffff81111561192e57600080fd5b61193a878288016117d8565b91505092959194509250565b6000806040838503121561195957600080fd5b600061196785828601611721565b925050602061197885828601611784565b9150509250929050565b6000806040838503121561199557600080fd5b60006119a385828601611721565b92505060206119b485828601611802565b9150509250929050565b6000602082840312156119d057600080fd5b60006119de84828501611799565b91505092915050565b6000602082840312156119f957600080fd5b6000611a07848285016117ae565b91505092915050565b600060208284031215611a2257600080fd5b6000611a30848285016117c3565b91505092915050565b600060208284031215611a4b57600080fd5b6000611a5984828501611802565b91505092915050565b60008060008060006101408688031215611a7b57600080fd5b6000611a8988828901611802565b9550506020611a9a88828901611802565b9450506040611aab8882890161175d565b9350506080611abc88828901611736565b925050610100611ace8882890161175d565b9150509295509295909350565b6000611ae78383611bc8565b60408301905092915050565b6000611aff8383611ea9565b60208301905092915050565b611b1481612383565b82525050565b611b2381612211565b611b2d818461226f565b9250611b38826121f3565b8060005b83811015611b69578151611b508782611adb565b9650611b5b83612248565b925050600181019050611b3c565b505050505050565b611b7a8161221c565b611b84818461227a565b9250611b8f826121fd565b8060005b83811015611bc0578151611ba78782611af3565b9650611bb283612255565b925050600181019050611b93565b505050505050565b611bd181612227565b611bdb8184612285565b9250611be682612207565b8060005b83811015611c17578151611bfe8782611af3565b9650611c0983612262565b925050600181019050611bea565b505050505050565b611c2881612227565b611c328184612290565b9250611c3d82612207565b8060005b83811015611c6e578151611c558782611af3565b9650611c6083612262565b925050600181019050611c41565b505050505050565b611c7f81612395565b82525050565b6000611c9082612232565b611c9a818561229b565b9350611caa818560208601612406565b611cb3816125d2565b840191505092915050565b6000611cc98261223d565b611cd381856122ac565b9350611ce3818560208601612406565b611cec816125d2565b840191505092915050565b6000611d028261223d565b611d0c81856122bd565b9350611d1c818560208601612406565b80840191505092915050565b6000611d356032836122ac565b9150611d40826125e3565b604082019050919050565b6000611d586016836122ac565b9150611d6382612632565b602082019050919050565b6000611d7b6025836122ac565b9150611d868261265b565b604082019050919050565b6000611d9e6024836122ac565b9150611da9826126aa565b604082019050919050565b6000611dc16019836122ac565b9150611dcc826126f9565b602082019050919050565b6000611de4601a836122ac565b9150611def82612722565b602082019050919050565b6000611e076029836122ac565b9150611e128261274b565b604082019050919050565b6000611e2a603e836122ac565b9150611e358261279a565b604082019050919050565b6000611e4d6018836122ac565b9150611e58826127e9565b602082019050919050565b6000611e706021836122ac565b9150611e7b82612812565b604082019050919050565b6000611e93602e836122ac565b9150611e9e82612861565b604082019050919050565b611eb2816123ed565b82525050565b611ec1816123ed565b82525050565b6000611ed38285611cf7565b9150611edf8284611cf7565b91508190509392505050565b6000602082019050611f006000830184611b0b565b92915050565b6000608082019050611f1b6000830187611b0b565b611f286020830186611b0b565b611f356040830185611eb8565b8181036060830152611f478184611c85565b905095945050505050565b600061012082019050611f686000830187611c1f565b611f756040830186611b1a565b611f8260c0830185611c1f565b611f90610100830184611b71565b95945050505050565b6000602082019050611fae6000830184611c76565b92915050565b60006020820190508181036000830152611fce8184611cbe565b905092915050565b60006020820190508181036000830152611fef81611d28565b9050919050565b6000602082019050818103600083015261200f81611d4b565b9050919050565b6000602082019050818103600083015261202f81611d6e565b9050919050565b6000602082019050818103600083015261204f81611d91565b9050919050565b6000602082019050818103600083015261206f81611db4565b9050919050565b6000602082019050818103600083015261208f81611dd7565b9050919050565b600060208201905081810360008301526120af81611dfa565b9050919050565b600060208201905081810360008301526120cf81611e1d565b9050919050565b600060208201905081810360008301526120ef81611e40565b9050919050565b6000602082019050818103600083015261210f81611e63565b9050919050565b6000602082019050818103600083015261212f81611e86565b9050919050565b600060208201905061214b6000830184611eb8565b92915050565b600061215b61216c565b9050612167828261246b565b919050565b6000604051905090565b600067ffffffffffffffff821115612191576121906125a3565b5b602082029050919050565b600067ffffffffffffffff8211156121b7576121b66125a3565b5b602082029050919050565b600067ffffffffffffffff8211156121dd576121dc6125a3565b5b6121e6826125d2565b9050602081019050919050565b6000819050919050565b6000819050919050565b6000819050919050565b600060029050919050565b600060019050919050565b600060029050919050565b600081519050919050565b600081519050919050565b6000602082019050919050565b6000602082019050919050565b6000602082019050919050565b600081905092915050565b600081905092915050565b600081905092915050565b600081905092915050565b600082825260208201905092915050565b600082825260208201905092915050565b600081905092915050565b60006122d3826123ed565b91506122de836123ed565b9250827fffffffffffffffffffffffffffffffffffffffffffffffffffffffffffffffff0382111561231357612312612516565b5b828201905092915050565b6000612329826123ed565b9150612334836123ed565b92508261234457612343612545565b5b828204905092915050565b600061235a826123ed565b9150612365836123ed565b92508282101561237857612377612516565b5b828203905092915050565b600061238e826123cd565b9050919050565b60008115159050919050565b60007fffffffff0000000000000000000000000000000000000000000000000000000082169050919050565b600073ffffffffffffffffffffffffffffffffffffffff82169050919050565b6000819050919050565b82818337600083830152505050565b60005b83811015612424578082015181840152602081019050612409565b83811115612433576000848401525b50505050565b6000600282049050600182168061245157607f821691505b6020821081141561246557612464612574565b5b50919050565b612474826125d2565b810181811067ffffffffffffffff82111715612493576124926125a3565b5b80604052505050565b60006124a7826123ed565b91507fffffffffffffffffffffffffffffffffffffffffffffffffffffffffffffffff8214156124da576124d9612516565b5b600182019050919050565b60006124f0826123ed565b91506124fb836123ed565b92508261250b5761250a612545565b5b828206905092915050565b7f4e487b7100000000000000000000000000000000000000000000000000000000600052601160045260246000fd5b7f4e487b7100000000000000000000000000000000000000000000000000000000600052601260045260246000fd5b7f4e487b7100000000000000000000000000000000000000000000000000000000600052602260045260246000fd5b7f4e487b7100000000000000000000000000000000000000000000000000000000600052604160045260246000fd5b6000601f19601f8301169050919050565b7f4552433732313a207472616e7366657220746f206e6f6e20455243373231526560008201527f63656976657220696d706c656d656e7465720000000000000000000000000000602082015250565b7f4e46544d696e743a20496e76616c69642070726f6f6600000000000000000000600082015250565b7f4552433732313a207472616e736665722066726f6d20696e636f72726563742060008201527f6f776e6572000000000000000000000000000000000000000000000000000000602082015250565b7f4552433732313a207472616e7366657220746f20746865207a65726f2061646460008201527f7265737300000000000000000000000000000000000000000000000000000000602082015250565b7f4552433732313a20617070726f766520746f2063616c6c657200000000000000600082015250565b7f4e46544d696e743a204e756c6c69666965722069732075736564000000000000600082015250565b7f4552433732313a2061646472657373207a65726f206973206e6f74206120766160008201527f6c6964206f776e65720000000000000000000000000000000000000000000000602082015250565b7f4552433732313a20617070726f76652063616c6c6572206973206e6f7420746f60008201527f6b656e206f776e6572206e6f7220617070726f76656420666f7220616c6c0000602082015250565b7f4552433732313a20696e76616c696420746f6b656e2049440000000000000000600082015250565b7f4552433732313a20617070726f76616c20746f2063757272656e74206f776e6560008201527f7200000000000000000000000000000000000000000000000000000000000000602082015250565b7f4552433732313a2063616c6c6572206973206e6f7420746f6b656e206f776e6560008201527f72206e6f7220617070726f766564000000000000000000000000000000000000602082015250565b6128b981612383565b81146128c457600080fd5b50565b6128d081612395565b81146128db57600080fd5b50565b6128e7816123a1565b81146128f257600080fd5b50565b6128fe816123ed565b811461290957600080fd5b5056fea26469706673582212201a3793e1fb25d56f683bcb0f09306c46ab7d4890718324fe401cca0ee607c52d64736f6c63430008040033",
  "devdoc": {
    "kind": "dev",
    "methods": {
      "approve(address,uint256)": {
        "details": "See {IERC721-approve}."
      },
      "balanceOf(address)": {
        "details": "See {IERC721-balanceOf}."
      },
      "getApproved(uint256)": {
        "details": "See {IERC721-getApproved}."
      },
      "isApprovedForAll(address,address)": {
        "details": "See {IERC721-isApprovedForAll}."
      },
      "name()": {
        "details": "See {IERC721Metadata-name}."
      },
      "ownerOf(uint256)": {
        "details": "See {IERC721-ownerOf}."
      },
      "safeTransferFrom(address,address,uint256)": {
        "details": "See {IERC721-safeTransferFrom}."
      },
      "safeTransferFrom(address,address,uint256,bytes)": {
        "details": "See {IERC721-safeTransferFrom}."
      },
      "setApprovalForAll(address,bool)": {
        "details": "See {IERC721-setApprovalForAll}."
      },
      "supportsInterface(bytes4)": {
        "details": "See {IERC165-supportsInterface}."
      },
      "symbol()": {
        "details": "See {IERC721Metadata-symbol}."
      },
      "tokenURI(uint256)": {
        "details": "See {IERC721Metadata-tokenURI}."
      },
      "transferFrom(address,address,uint256)": {
        "details": "See {IERC721-transferFrom}."
      }
    },
    "version": 1
  },
  "userdoc": {
    "kind": "user",
    "methods": {},
    "version": 1
  },
  "storageLayout": {
    "storage": [
      {
        "astId": 25,
        "contract": "contracts/minter.sol:NFTMint",
        "label": "_name",
        "offset": 0,
        "slot": "0",
        "type": "t_string_storage"
      },
      {
        "astId": 27,
        "contract": "contracts/minter.sol:NFTMint",
        "label": "_symbol",
        "offset": 0,
        "slot": "1",
        "type": "t_string_storage"
      },
      {
        "astId": 31,
        "contract": "contracts/minter.sol:NFTMint",
        "label": "_owners",
        "offset": 0,
        "slot": "2",
        "type": "t_mapping(t_uint256,t_address)"
      },
      {
        "astId": 35,
        "contract": "contracts/minter.sol:NFTMint",
        "label": "_balances",
        "offset": 0,
        "slot": "3",
        "type": "t_mapping(t_address,t_uint256)"
      },
      {
        "astId": 39,
        "contract": "contracts/minter.sol:NFTMint",
        "label": "_tokenApprovals",
        "offset": 0,
        "slot": "4",
        "type": "t_mapping(t_uint256,t_address)"
      },
      {
        "astId": 45,
        "contract": "contracts/minter.sol:NFTMint",
        "label": "_operatorApprovals",
        "offset": 0,
        "slot": "5",
        "type": "t_mapping(t_address,t_mapping(t_address,t_bool))"
      },
      {
        "astId": 1637,
        "contract": "contracts/minter.sol:NFTMint",
        "label": "newItemId",
        "offset": 0,
        "slot": "6",
        "type": "t_uint256"
      },
      {
        "astId": 1640,
        "contract": "contracts/minter.sol:NFTMint",
        "label": "verifier",
        "offset": 0,
        "slot": "7",
        "type": "t_contract(Iverifier)1633"
      },
      {
        "astId": 1644,
        "contract": "contracts/minter.sol:NFTMint",
        "label": "nullifiers",
        "offset": 0,
        "slot": "8",
        "type": "t_mapping(t_uint256,t_bool)"
      }
    ],
    "types": {
      "t_address": {
        "encoding": "inplace",
        "label": "address",
        "numberOfBytes": "20"
      },
      "t_bool": {
        "encoding": "inplace",
        "label": "bool",
        "numberOfBytes": "1"
      },
      "t_contract(Iverifier)1633": {
        "encoding": "inplace",
        "label": "contract Iverifier",
        "numberOfBytes": "20"
      },
      "t_mapping(t_address,t_bool)": {
        "encoding": "mapping",
        "key": "t_address",
        "label": "mapping(address => bool)",
        "numberOfBytes": "32",
        "value": "t_bool"
      },
      "t_mapping(t_address,t_mapping(t_address,t_bool))": {
        "encoding": "mapping",
        "key": "t_address",
        "label": "mapping(address => mapping(address => bool))",
        "numberOfBytes": "32",
        "value": "t_mapping(t_address,t_bool)"
      },
      "t_mapping(t_address,t_uint256)": {
        "encoding": "mapping",
        "key": "t_address",
        "label": "mapping(address => uint256)",
        "numberOfBytes": "32",
        "value": "t_uint256"
      },
      "t_mapping(t_uint256,t_address)": {
        "encoding": "mapping",
        "key": "t_uint256",
        "label": "mapping(uint256 => address)",
        "numberOfBytes": "32",
        "value": "t_address"
      },
      "t_mapping(t_uint256,t_bool)": {
        "encoding": "mapping",
        "key": "t_uint256",
        "label": "mapping(uint256 => bool)",
        "numberOfBytes": "32",
        "value": "t_bool"
      },
      "t_string_storage": {
        "encoding": "bytes",
        "label": "string",
        "numberOfBytes": "32"
      },
      "t_uint256": {
        "encoding": "inplace",
        "label": "uint256",
        "numberOfBytes": "32"
      }
    }
  }
}