{
  "address": "0x8804B67C2d0a014CC88CD2759f0e71a8C9714912",
  "abi": [
    {
      "inputs": [
        {
          "internalType": "address",
          "name": "_verifier",
          "type": "address"
        }
      ],
      "stateMutability": "nonpayable",
      "type": "constructor"
    },
    {
      "inputs": [],
      "name": "name",
      "outputs": [
        {
          "internalType": "string",
          "name": "",
          "type": "string"
        }
      ],
      "stateMutability": "view",
      "type": "function"
    },
    {
      "inputs": [
        {
          "internalType": "uint256",
          "name": "",
          "type": "uint256"
        }
      ],
      "name": "nullifiers",
      "outputs": [
        {
          "internalType": "bool",
          "name": "",
          "type": "bool"
        }
      ],
      "stateMutability": "view",
      "type": "function"
    },
    {
      "inputs": [
        {
          "internalType": "uint256",
          "name": "_nullifier",
          "type": "uint256"
        },
        {
          "internalType": "uint256",
          "name": "_publicNumber",
          "type": "uint256"
        },
        {
          "internalType": "string",
          "name": "_name",
          "type": "string"
        },
        {
          "internalType": "uint256[2]",
          "name": "a",
          "type": "uint256[2]"
        },
        {
          "internalType": "uint256[2][2]",
          "name": "b",
          "type": "uint256[2][2]"
        },
        {
          "internalType": "uint256[2]",
          "name": "c",
          "type": "uint256[2]"
        }
      ],
      "name": "registerWithProof",
      "outputs": [],
      "stateMutability": "nonpayable",
      "type": "function"
    }
  ],
  "transactionHash": "0xf127a4b2ff41cfeced2adc5108b4e75f06240b4b2f125cfb5eda639660e416cb",
  "args": [
    "0xA7057C14403ee2f827057Aa2B3A3F2c104d433eD"
  ],
  "numDeployments": 1,
  "solcInputHash": "4e26ffe20fa2e042ab46c9116716ef47",
  "bytecode": "0x608060405234801561001057600080fd5b50604051610d78380380610d788339818101604052810190610032919061008e565b80600160006101000a81548173ffffffffffffffffffffffffffffffffffffffff021916908373ffffffffffffffffffffffffffffffffffffffff16021790555050610100565b600081519050610088816100e9565b92915050565b6000602082840312156100a057600080fd5b60006100ae84828501610079565b91505092915050565b60006100c2826100c9565b9050919050565b600073ffffffffffffffffffffffffffffffffffffffff82169050919050565b6100f2816100b7565b81146100fd57600080fd5b50565b610c698061010f6000396000f3fe608060405234801561001057600080fd5b50600436106100415760003560e01c806306fdde031461004657806392e6e59c14610064578063d21e82ab14610080575b600080fd5b61004e6100b0565b60405161005b91906108d7565b60405180910390f35b61007e600480360381019061007991906105a9565b61013e565b005b61009a60048036038101906100959190610580565b6102ee565b6040516100a791906108bc565b60405180910390f35b600080546100bd90610ae1565b80601f01602080910402602001604051908101604052809291908181526020018280546100e990610ae1565b80156101365780601f1061010b57610100808354040283529160200191610136565b820191906000526020600020905b81548152906001019060200180831161011957829003601f168201915b505050505081565b600015156002600088815260200190815260200160002060009054906101000a900460ff161515146101a5576040517f08c379a000000000000000000000000000000000000000000000000000000000815260040161019c90610919565b60405180910390fd5b600160009054906101000a900473ffffffffffffffffffffffffffffffffffffffff1673ffffffffffffffffffffffffffffffffffffffff166343753b4d84848460405180602001604052808b8152506040518563ffffffff1660e01b81526004016102149493929190610875565b60206040518083038186803b15801561022c57600080fd5b505afa158015610240573d6000803e3d6000fd5b505050506040513d601f19601f820116820180604052508101906102649190610557565b6102a3576040517f08c379a000000000000000000000000000000000000000000000000000000000815260040161029a906108f9565b60405180910390fd5b60016002600088815260200190815260200160002060006101000a81548160ff02191690831515021790555083600090805190602001906102e592919061030e565b50505050505050565b60026020528060005260406000206000915054906101000a900460ff1681565b82805461031a90610ae1565b90600052602060002090601f01602090048101928261033c5760008555610383565b82601f1061035557805160ff1916838001178555610383565b82800160010185558215610383579182015b82811115610382578251825591602001919060010190610367565b5b5090506103909190610394565b5090565b5b808211156103ad576000816000905550600101610395565b5090565b60006103c46103bf8461095e565b610939565b905080828560408602820111156103da57600080fd5b60005b8581101561040a57816103f088826104dc565b8452602084019350604083019250506001810190506103dd565b5050509392505050565b600061042761042284610984565b610939565b9050808285602086028201111561043d57600080fd5b60005b8581101561046d57816104538882610542565b845260208401935060208301925050600181019050610440565b5050509392505050565b600061048a610485846109aa565b610939565b9050828152602081018484840111156104a257600080fd5b6104ad848285610a9f565b509392505050565b600082601f8301126104c657600080fd5b60026104d38482856103b1565b91505092915050565b600082601f8301126104ed57600080fd5b60026104fa848285610414565b91505092915050565b60008151905061051281610c05565b92915050565b600082601f83011261052957600080fd5b8135610539848260208601610477565b91505092915050565b60008135905061055181610c1c565b92915050565b60006020828403121561056957600080fd5b600061057784828501610503565b91505092915050565b60006020828403121561059257600080fd5b60006105a084828501610542565b91505092915050565b60008060008060008061016087890312156105c357600080fd5b60006105d189828a01610542565b96505060206105e289828a01610542565b955050604087013567ffffffffffffffff8111156105ff57600080fd5b61060b89828a01610518565b945050606061061c89828a016104dc565b93505060a061062d89828a016104b5565b92505061012061063f89828a016104dc565b9150509295509295509295565b6000610658838361072a565b60408301905092915050565b60006106708383610866565b60208301905092915050565b610685816109f9565b61068f8184610a4c565b925061069a826109db565b8060005b838110156106cb5781516106b2878261064c565b96506106bd83610a25565b92505060018101905061069e565b505050505050565b6106dc81610a04565b6106e68184610a57565b92506106f1826109e5565b8060005b838110156107225781516107098782610664565b965061071483610a32565b9250506001810190506106f5565b505050505050565b61073381610a0f565b61073d8184610a62565b9250610748826109ef565b8060005b838110156107795781516107608782610664565b965061076b83610a3f565b92505060018101905061074c565b505050505050565b61078a81610a0f565b6107948184610a6d565b925061079f826109ef565b8060005b838110156107d05781516107b78782610664565b96506107c283610a3f565b9250506001810190506107a3565b505050505050565b6107e181610a89565b82525050565b60006107f282610a1a565b6107fc8185610a78565b935061080c818560208601610aae565b61081581610ba2565b840191505092915050565b600061082d601783610a78565b915061083882610bb3565b602082019050919050565b6000610850601b83610a78565b915061085b82610bdc565b602082019050919050565b61086f81610a95565b82525050565b60006101208201905061088b6000830187610781565b610898604083018661067c565b6108a560c0830185610781565b6108b36101008301846106d3565b95945050505050565b60006020820190506108d160008301846107d8565b92915050565b600060208201905081810360008301526108f181846107e7565b905092915050565b6000602082019050818103600083015261091281610820565b9050919050565b6000602082019050818103600083015261093281610843565b9050919050565b6000610943610954565b905061094f8282610b13565b919050565b6000604051905090565b600067ffffffffffffffff82111561097957610978610b73565b5b602082029050919050565b600067ffffffffffffffff82111561099f5761099e610b73565b5b602082029050919050565b600067ffffffffffffffff8211156109c5576109c4610b73565b5b6109ce82610ba2565b9050602081019050919050565b6000819050919050565b6000819050919050565b6000819050919050565b600060029050919050565b600060019050919050565b600060029050919050565b600081519050919050565b6000602082019050919050565b6000602082019050919050565b6000602082019050919050565b600081905092915050565b600081905092915050565b600081905092915050565b600081905092915050565b600082825260208201905092915050565b60008115159050919050565b6000819050919050565b82818337600083830152505050565b60005b83811015610acc578082015181840152602081019050610ab1565b83811115610adb576000848401525b50505050565b60006002820490506001821680610af957607f821691505b60208210811415610b0d57610b0c610b44565b5b50919050565b610b1c82610ba2565b810181811067ffffffffffffffff82111715610b3b57610b3a610b73565b5b80604052505050565b7f4e487b7100000000000000000000000000000000000000000000000000000000600052602260045260246000fd5b7f4e487b7100000000000000000000000000000000000000000000000000000000600052604160045260246000fd5b6000601f19601f8301169050919050565b7f52656769737465723a20496e76616c69642070726f6f66000000000000000000600082015250565b7f52656769737465723a204e756c6c696669657220697320757365640000000000600082015250565b610c0e81610a89565b8114610c1957600080fd5b50565b610c2581610a95565b8114610c3057600080fd5b5056fea26469706673582212201c54b46a6dbe1102d9fbdbe3d8d719b426faa9471aa1c838bf2ba6d6e58ac34d64736f6c63430008040033",
  "devdoc": {
    "kind": "dev",
    "methods": {},
    "version": 1
  },
  "userdoc": {
    "kind": "user",
    "methods": {},
    "version": 1
  },
  "storageLayout": {
    "storage": [
      {
        "astId": 27,
        "contract": "contracts/Register.sol:Register",
        "label": "name",
        "offset": 0,
        "slot": "0",
        "type": "t_string_storage"
      },
      {
        "astId": 30,
        "contract": "contracts/Register.sol:Register",
        "label": "verifier",
        "offset": 0,
        "slot": "1",
        "type": "t_contract(Iverifier)25"
      },
      {
        "astId": 34,
        "contract": "contracts/Register.sol:Register",
        "label": "nullifiers",
        "offset": 0,
        "slot": "2",
        "type": "t_mapping(t_uint256,t_bool)"
      }
    ],
    "types": {
      "t_bool": {
        "encoding": "inplace",
        "label": "bool",
        "numberOfBytes": "1"
      },
      "t_contract(Iverifier)25": {
        "encoding": "inplace",
        "label": "contract Iverifier",
        "numberOfBytes": "20"
      },
      "t_mapping(t_uint256,t_bool)": {
        "encoding": "mapping",
        "key": "t_uint256",
        "label": "mapping(uint256 => bool)",
        "numberOfBytes": "32",
        "value": "t_bool"
      },
      "t_string_storage": {
        "encoding": "bytes",
        "label": "string",
        "numberOfBytes": "32"
      },
      "t_uint256": {
        "encoding": "inplace",
        "label": "uint256",
        "numberOfBytes": "32"
      }
    }
  }
}